{"abi":[{"type":"constructor","inputs":[{"name":"_wormholeRelayer","type":"address","internalType":"address"}],"stateMutability":"nonpayable"},{"type":"function","name":"receiveWormholeMessages","inputs":[{"name":"payload","type":"bytes","internalType":"bytes"},{"name":"","type":"bytes[]","internalType":"bytes[]"},{"name":"sourceAddress","type":"bytes32","internalType":"bytes32"},{"name":"sourceChain","type":"uint16","internalType":"uint16"},{"name":"","type":"bytes32","internalType":"bytes32"}],"outputs":[],"stateMutability":"payable"},{"type":"function","name":"registeredSenders","inputs":[{"name":"","type":"uint16","internalType":"uint16"}],"outputs":[{"name":"","type":"bytes32","internalType":"bytes32"}],"stateMutability":"view"},{"type":"function","name":"registrationOwner","inputs":[],"outputs":[{"name":"","type":"address","internalType":"address"}],"stateMutability":"view"},{"type":"function","name":"setRegisteredSender","inputs":[{"name":"sourceChain","type":"uint16","internalType":"uint16"},{"name":"sourceAddress","type":"bytes32","internalType":"bytes32"}],"outputs":[],"stateMutability":"nonpayable"},{"type":"function","name":"wormholeRelayer","inputs":[],"outputs":[{"name":"","type":"address","internalType":"contract IWormholeRelayer"}],"stateMutability":"view"},{"type":"event","name":"MessageReceived","inputs":[{"name":"message","type":"string","indexed":false,"internalType":"string"}],"anonymous":false},{"type":"event","name":"SourceChainLogged","inputs":[{"name":"sourceChain","type":"uint16","indexed":false,"internalType":"uint16"}],"anonymous":false}],"bytecode":{"object":"0x6080604052348015600f57600080fd5b506040516106ed3803806106ed833981016040819052602c916059565b600080546001600160a01b039092166001600160a01b031992831617905560018054909116331790556087565b600060208284031215606a57600080fd5b81516001600160a01b0381168114608057600080fd5b9392505050565b610657806100966000396000f3fe60806040526004361061004a5760003560e01c8063529dca321461004f57806379f0371d146100645780637cee647b146100a4578063da25b725146100dc578063dd12d68b146100fc575b600080fd5b61006261005d3660046103e6565b61011c565b005b34801561007057600080fd5b5061009161007f366004610507565b60026020526000908152604090205481565b6040519081526020015b60405180910390f35b3480156100b057600080fd5b506001546100c4906001600160a01b031681565b6040516001600160a01b03909116815260200161009b565b3480156100e857600080fd5b506000546100c4906001600160a01b031681565b34801561010857600080fd5b50610062610117366004610529565b61028d565b61ffff821660009081526002602052604090205482908490811461017f5760405162461bcd60e51b81526020600482015260156024820152742737ba103932b3b4b9ba32b932b21039b2b73232b960591b60448201526064015b60405180910390fd5b6000546001600160a01b031633146101f25760405162461bcd60e51b815260206004820152603060248201527f4f6e6c792074686520576f726d686f6c652072656c617965722063616e20636160448201526f3636103a3434b990333ab731ba34b7b760811b6064820152608401610176565b6000878060200190518101906102089190610577565b905061ffff85161561024c5760405161ffff861681527f50ba49d0e094db761c7b728852340d30d4d9d717fb3565970c4c8a1c47f876ac9060200160405180910390a15b7ff7d0fdc395711a2233b76a4ff1de3b5657584b471fd633499a7faf1fbcaba4638160405161027b91906105ee565b60405180910390a15050505050505050565b6001546001600160a01b031633146102f35760405162461bcd60e51b8152602060048201526024808201527f4e6f7420616c6c6f77656420746f207365742072656769737465726564207365604482015263373232b960e11b6064820152608401610176565b61ffff909116600090815260026020526040902055565b634e487b7160e01b600052604160045260246000fd5b604051601f8201601f1916810167ffffffffffffffff811182821017156103495761034961030a565b604052919050565b600067ffffffffffffffff82111561036b5761036b61030a565b50601f01601f191660200190565b600082601f83011261038a57600080fd5b813561039d61039882610351565b610320565b8181528460208386010111156103b257600080fd5b816020850160208301376000918101602001919091529392505050565b803561ffff811681146103e157600080fd5b919050565b600080600080600060a086880312156103fe57600080fd5b853567ffffffffffffffff81111561041557600080fd5b61042188828901610379565b955050602086013567ffffffffffffffff81111561043e57600080fd5b8601601f8101881361044f57600080fd5b803567ffffffffffffffff8111156104695761046961030a565b8060051b61047960208201610320565b9182526020818401810192908101908b84111561049557600080fd5b6020850192505b838310156104dc57823567ffffffffffffffff8111156104bb57600080fd5b6104ca8d602083890101610379565b8352506020928301929091019061049c565b9750505050604087013593506104f69050606087016103cf565b949793965091946080013592915050565b60006020828403121561051957600080fd5b610522826103cf565b9392505050565b6000806040838503121561053c57600080fd5b610545836103cf565b946020939093013593505050565b60005b8381101561056e578181015183820152602001610556565b50506000910152565b60006020828403121561058957600080fd5b815167ffffffffffffffff8111156105a057600080fd5b8201601f810184136105b157600080fd5b80516105bf61039882610351565b8181528560208385010111156105d457600080fd5b6105e5826020830160208601610553565b95945050505050565b602081526000825180602084015261060d816040850160208701610553565b601f01601f1916919091016040019291505056fea2646970667358221220287c3067c46971b6301749a2fef81f3461852947752245349447af7816e4239564736f6c634300081b0033","linkReferences":{}},"methodIdentifiers":{"receiveWormholeMessages(bytes,bytes[],bytes32,uint16,bytes32)":"529dca32","registeredSenders(uint16)":"79f0371d","registrationOwner()":"7cee647b","setRegisteredSender(uint16,bytes32)":"dd12d68b","wormholeRelayer()":"da25b725"},"id":25}