{"abi":[{"type":"constructor","inputs":[{"name":"_wormholeRelayer","type":"address","internalType":"address"}],"stateMutability":"nonpayable"},{"type":"function","name":"quoteCrossChainCost","inputs":[{"name":"targetChain","type":"uint16","internalType":"uint16"}],"outputs":[{"name":"cost","type":"uint256","internalType":"uint256"}],"stateMutability":"view"},{"type":"function","name":"sendMessage","inputs":[{"name":"targetChain","type":"uint16","internalType":"uint16"},{"name":"targetAddress","type":"address","internalType":"address"},{"name":"message","type":"string","internalType":"string"}],"outputs":[],"stateMutability":"payable"},{"type":"function","name":"wormholeRelayer","inputs":[],"outputs":[{"name":"","type":"address","internalType":"contract IWormholeRelayer"}],"stateMutability":"view"}],"bytecode":{"object":"0x6080604052348015600f57600080fd5b5060405161055a38038061055a833981016040819052602c916050565b600080546001600160a01b0319166001600160a01b0392909216919091179055607e565b600060208284031215606157600080fd5b81516001600160a01b0381168114607757600080fd5b9392505050565b6104cd8061008d6000396000f3fe6080604052600436106100345760003560e01c8063894dd9eb14610039578063afd444881461006c578063da25b72514610081575b600080fd5b34801561004557600080fd5b50610059610054366004610277565b6100b9565b6040519081526020015b60405180910390f35b61007f61007a3660046102af565b61013f565b005b34801561008d57600080fd5b506000546100a1906001600160a01b031681565b6040516001600160a01b039091168152602001610063565b6000805460405163c23ee3c360e01b815261ffff841660048201526024810183905261c35060448201526001600160a01b039091169063c23ee3c3906064016040805180830381865afa158015610114573d6000803e3d6000fd5b505050506040513d601f19601f820116820180604052508101906101389190610397565b5092915050565b600061014a846100b9565b9050803410156101b45760405162461bcd60e51b815260206004820152602b60248201527f496e73756666696369656e742066756e647320666f722063726f73732d63686160448201526a696e2064656c697665727960a81b606482015260840160405180910390fd5b6000546040516001600160a01b0390911690638fecdd02908390879087906101e29088903390602001610401565b604051602081830303815290604052600061c3506040518763ffffffff1660e01b815260040161021695949392919061042b565b60206040518083038185885af1158015610234573d6000803e3d6000fd5b50505050506040513d601f19601f82011682018060405250810190610259919061046d565b5050505050565b803561ffff8116811461027257600080fd5b919050565b60006020828403121561028957600080fd5b61029282610260565b9392505050565b634e487b7160e01b600052604160045260246000fd5b6000806000606084860312156102c457600080fd5b6102cd84610260565b925060208401356001600160a01b03811681146102e957600080fd5b9150604084013567ffffffffffffffff81111561030557600080fd5b8401601f8101861361031657600080fd5b803567ffffffffffffffff81111561033057610330610299565b604051601f8201601f19908116603f0116810167ffffffffffffffff8111828210171561035f5761035f610299565b60405281815282820160200188101561037757600080fd5b816020840160208301376000602083830101528093505050509250925092565b600080604083850312156103aa57600080fd5b505080516020909101519092909150565b6000815180845260005b818110156103e1576020818501810151868301820152016103c5565b506000602082860101526020601f19601f83011685010191505092915050565b60408152600061041460408301856103bb565b905060018060a01b03831660208301529392505050565b61ffff861681526001600160a01b038516602082015260a060408201819052600090610459908301866103bb565b606083019490945250608001529392505050565b60006020828403121561047f57600080fd5b815167ffffffffffffffff8116811461029257600080fdfea26469706673582212204b15709694f81d2341d748b52826d300dca17aec382b5593cdc66d521a297eca64736f6c634300081b0033","linkReferences":{}},"methodIdentifiers":{"quoteCrossChainCost(uint16)":"894dd9eb","sendMessage(uint16,address,string)":"afd44488","wormholeRelayer()":"da25b725"},"id":26}